{
  "contractName": "Voting",
  "abi": [
    {
      "constant": false,
      "inputs": [
        {
          "name": "uid",
          "type": "uint256"
        },
        {
          "name": "title",
          "type": "string"
        },
        {
          "name": "start_time",
          "type": "uint256"
        },
        {
          "name": "end_time",
          "type": "uint256"
        }
      ],
      "name": "addElection",
      "outputs": [],
      "payable": false,
      "stateMutability": "nonpayable",
      "type": "function"
    },
    {
      "constant": false,
      "inputs": [
        {
          "name": "uid",
          "type": "uint256"
        },
        {
          "name": "name",
          "type": "bytes32"
        },
        {
          "name": "major",
          "type": "bytes32"
        },
        {
          "name": "electionId",
          "type": "uint256"
        }
      ],
      "name": "addCandidate",
      "outputs": [],
      "payable": false,
      "stateMutability": "nonpayable",
      "type": "function"
    },
    {
      "constant": false,
      "inputs": [
        {
          "name": "uid",
          "type": "uint256"
        },
        {
          "name": "candidateId",
          "type": "uint256"
        },
        {
          "name": "electionId",
          "type": "uint256"
        }
      ],
      "name": "vote",
      "outputs": [],
      "payable": false,
      "stateMutability": "nonpayable",
      "type": "function"
    },
    {
      "constant": true,
      "inputs": [
        {
          "name": "electionId",
          "type": "uint256"
        }
      ],
      "name": "getNumOfCandidates",
      "outputs": [
        {
          "name": "",
          "type": "uint256"
        }
      ],
      "payable": false,
      "stateMutability": "view",
      "type": "function"
    },
    {
      "constant": true,
      "inputs": [
        {
          "name": "electionId",
          "type": "uint256"
        }
      ],
      "name": "getNumOfVoters",
      "outputs": [
        {
          "name": "",
          "type": "uint256"
        }
      ],
      "payable": false,
      "stateMutability": "view",
      "type": "function"
    },
    {
      "constant": true,
      "inputs": [
        {
          "name": "electionId",
          "type": "uint256"
        }
      ],
      "name": "getElection",
      "outputs": [
        {
          "name": "",
          "type": "uint256"
        },
        {
          "name": "",
          "type": "string"
        },
        {
          "name": "",
          "type": "uint256"
        },
        {
          "name": "",
          "type": "uint256"
        },
        {
          "name": "",
          "type": "uint256"
        },
        {
          "name": "",
          "type": "uint256"
        }
      ],
      "payable": false,
      "stateMutability": "view",
      "type": "function"
    },
    {
      "constant": true,
      "inputs": [
        {
          "name": "candidateId",
          "type": "uint256"
        }
      ],
      "name": "getCandidate",
      "outputs": [
        {
          "name": "",
          "type": "uint256"
        },
        {
          "name": "",
          "type": "bytes32"
        },
        {
          "name": "",
          "type": "bytes32"
        },
        {
          "name": "",
          "type": "uint256"
        },
        {
          "name": "",
          "type": "uint256"
        }
      ],
      "payable": false,
      "stateMutability": "view",
      "type": "function"
    },
    {
      "constant": true,
      "inputs": [
        {
          "name": "voteId",
          "type": "uint256"
        }
      ],
      "name": "getVote",
      "outputs": [
        {
          "name": "",
          "type": "uint256"
        },
        {
          "name": "",
          "type": "uint256"
        },
        {
          "name": "",
          "type": "uint256"
        }
      ],
      "payable": false,
      "stateMutability": "view",
      "type": "function"
    }
  ],
  "bytecode": "0x608060405234801561001057600080fd5b506109e4806100206000396000f30060806040526004361061008e576000357c0100000000000000000000000000000000000000000000000000000000900463ffffffff1680631b1e77fe1461009357806335b8e8201461011a5780635a55c1f01461018757806377813f4f146101d65780638a6655d614610217578063980ff7af146102585780639d71077714610299578063f100f79d14610362575b600080fd5b34801561009f57600080fd5b5061011860048036038101908080359060200190929190803590602001908201803590602001908080601f016020809104026020016040519081016040528093929190818152602001838380828437820191505050505050919291929080359060200190929190803590602001909291905050506103b5565b005b34801561012657600080fd5b506101456004803603810190808035906020019092919050505061047f565b60405180868152602001856000191660001916815260200184600019166000191681526020018381526020018281526020019550505050505060405180910390f35b34801561019357600080fd5b506101b26004803603810190808035906020019092919050505061050d565b60405180848152602001838152602001828152602001935050505060405180910390f35b3480156101e257600080fd5b5061020160048036038101908080359060200190929190505050610564565b6040518082815260200191505060405180910390f35b34801561022357600080fd5b50610256600480360381019080803590602001909291908035906020019092919080359060200190929190505050610583565b005b34801561026457600080fd5b50610283600480360381019080803590602001909291905050506106be565b6040518082815260200191505060405180910390f35b3480156102a557600080fd5b506102c4600480360381019080803590602001909291905050506106dd565b6040518087815260200180602001868152602001858152602001848152602001838152602001828103825287818151815260200191508051906020019080838360005b83811015610322578082015181840152602081019050610307565b50505050905090810190601f16801561034f5780820380516001836020036101000a031916815260200191505b5097505050505050505060405180910390f35b34801561036e57600080fd5b506103b360048036038101908080359060200190929190803560001916906020019092919080356000191690602001909291908035906020019092919050505061081b565b005b60e060405190810160405280858152602001848152602001838152602001828152602001600115158152602001600081526020016000815250600080868152602001908152602001600020600082015181600001556020820151816001019080519060200190610426929190610913565b50604082015181600201556060820151816003015560808201518160040160006101000a81548160ff02191690831515021790555060a0820151816005015560c082015181600601559050508360038190555050505050565b6000806000806000600160008781526020019081526020016000206000015460016000888152602001908152602001600020600101546001600089815260200190815260200160002060020154600160008a815260200190815260200160002060040154600160008b8152602001908152602001600020600501549450945094509450945091939590929450565b60008060006002600085815260200190815260200160002060000154600260008681526020019081526020016000206001015460026000878152602001908152602001600020600201549250925092509193909250565b6000806000838152602001908152602001600020600501549050919050565b6001151560008083815260200190815260200160002060040160009054906101000a900460ff1615151480156105e05750600115156001600084815260200190815260200160002060030160009054906101000a900460ff161515145b156106b957606060405190810160405280848152602001838152602001828152506002600085815260200190815260200160002060008201518160000155602082015181600101556040820151816002015590505060008082815260200190815260200160002060050160008154809291906001019190505560008083815260200190815260200160002060050181905550600160008381526020019081526020016000206005016000815480929190600101919050556001600084815260200190815260200160002060050181905550826004819055505b505050565b6000806000838152602001908152602001600020600601549050919050565b60006060600080600080600080888152602001908152602001600020600001546000808981526020019081526020016000206001016000808a8152602001908152602001600020600201546000808b8152602001908152602001600020600301546000808c8152602001908152602001600020600501546000808d815260200190815260200160002060060154848054600181600116156101000203166002900480601f0160208091040260200160405190810160405280929190818152602001828054600181600116156101000203166002900480156107ff5780601f106107d4576101008083540402835291602001916107ff565b820191906000526020600020905b8154815290600101906020018083116107e257829003601f168201915b5050505050945095509550955095509550955091939550919395565b60c060405190810160405280858152602001846000191681526020018360001916815260200160011515815260200182815260200160008152506001600086815260200190815260200160002060008201518160000155602082015181600101906000191690556040820151816002019060001916905560608201518160030160006101000a81548160ff0219169083151502179055506080820151816004015560a08201518160050155905050600080828152602001908152602001600020600601600081548092919060010191905055600080838152602001908152602001600020600601819055508360058190555050505050565b828054600181600116156101000203166002900490600052602060002090601f016020900481019282601f1061095457805160ff1916838001178555610982565b82800160010185558215610982579182015b82811115610981578251825591602001919060010190610966565b5b50905061098f9190610993565b5090565b6109b591905b808211156109b1576000816000905550600101610999565b5090565b905600a165627a7a72305820fed4395688de89a6c1d6886c6213a8c7ca990165e681aa04deac48dd46b5162f0029",
  "source": "pragma solidity ^0.4.24;\n\n/**\n * The contractName contract does this and that...\n */\ncontract Voting {\n\n\tstruct Election {\n\t\tuint uid;\n\t\tstring title;\n\t\tuint start_time;\n\t\tuint end_time;\n\t\tbool doesExist;\n\t\tuint totalVotesCount;\n\t\tuint candidatesNum;\n\t}\n\n\tstruct Voter {\n\t\tuint uid;\n\t\tuint candidateID;\n\t\tuint electionID;\n\t}\n\n\tstruct Candidate {\n\t\tuint uid;\n\t\tbytes32 name;\n\t\tbytes32 major;\n\t\tbool doesExist;\n\t\tuint electionID;\n\t\tuint theTotalVotes;\n\t}\n\n\tmapping(uint => Election) elections;\n\tmapping(uint => Candidate) candidates;\n\tmapping(uint => Voter) voters;\n\n\tuint lastElectionId;\n\tuint lastVoterId;\n\tuint lastCandidateId;\n\n\n\tfunction addElection(uint uid, string title, uint start_time, uint end_time) public {\n\t\telections[uid] = Election(uid,title,start_time,end_time,true,0,0);\n\t\tlastElectionId = uid;\n\t}\n\n\tfunction addCandidate(uint uid, bytes32 name, bytes32 major, uint electionId) public {\n\t\tcandidates[uid] = Candidate(uid, name,major,true,electionId,0);\n\t\telections[electionId].candidatesNum = elections[electionId].candidatesNum++;\n\t\tlastCandidateId = uid;\n\t}\n\n\tfunction vote(uint uid, uint candidateId , uint electionId) public {\n\t\tif(elections[electionId].doesExist == true && candidates[candidateId].doesExist ==true) {\n\t\t\tvoters[uid] = Voter(uid,candidateId, electionId);\n\t\t\telections[electionId].totalVotesCount = elections[electionId].totalVotesCount++;\n\t\t\tcandidates[candidateId].theTotalVotes = candidates[candidateId].theTotalVotes++;\n\t\t\tlastVoterId = uid;\n\t\t}\n\t}\n\n\tfunction getNumOfCandidates(uint electionId) public view returns(uint) {\n\t\treturn elections[electionId].candidatesNum;\n\t}\n\n\tfunction getNumOfVoters(uint electionId) public view returns(uint) {\n\t\treturn elections[electionId].totalVotesCount;\n\t}\n\n\tfunction getElection(uint electionId) public view returns(uint, string, uint, uint, uint, uint) {\n\t\treturn (elections[electionId].uid, elections[electionId].title, elections[electionId].start_time, elections[electionId].end_time, elections[electionId].totalVotesCount, elections[electionId].candidatesNum);\n\t}\n\n\tfunction getCandidate(uint candidateId) public view returns(uint, bytes32, bytes32, uint, uint) {\n\t\treturn (candidates[candidateId].uid, candidates[candidateId].name, candidates[candidateId].major, candidates[candidateId].electionID,candidates[candidateId].theTotalVotes);\n\t}\n\n\tfunction getVote(uint voteId) public view returns(uint, uint, uint) {\n\t\treturn (voters[voteId].uid, voters[voteId].candidateID, voters[voteId].electionID);\n\t}\n}\n",
  "sourcePath": "/Users/jeonjihun/Desktop/project/voting/contracts/Voting.sol",
  "compiler": {
    "name": "solc",
    "version": "0.4.24+commit.e67f0147.Emscripten.clang"
  },
  "schemaVersion": "2.0.0",
  "updatedAt": "2018-12-05T13:55:50.105Z"
}