{
  "contractName": "Voting",
  "abi": [
    {
      "constant": false,
      "inputs": [
        {
          "name": "uid",
          "type": "uint256"
        },
        {
          "name": "title",
          "type": "string"
        },
        {
          "name": "start_time",
          "type": "uint256"
        },
        {
          "name": "end_time",
          "type": "uint256"
        }
      ],
      "name": "addElection",
      "outputs": [],
      "payable": false,
      "stateMutability": "nonpayable",
      "type": "function"
    },
    {
      "constant": false,
      "inputs": [
        {
          "name": "uid",
          "type": "uint256"
        },
        {
          "name": "name",
          "type": "bytes32"
        },
        {
          "name": "major",
          "type": "bytes32"
        },
        {
          "name": "electionId",
          "type": "uint256"
        }
      ],
      "name": "addCandidate",
      "outputs": [],
      "payable": false,
      "stateMutability": "nonpayable",
      "type": "function"
    },
    {
      "constant": false,
      "inputs": [
        {
          "name": "uid",
          "type": "uint256"
        },
        {
          "name": "candidateId",
          "type": "uint256"
        },
        {
          "name": "electionId",
          "type": "uint256"
        }
      ],
      "name": "vote",
      "outputs": [],
      "payable": false,
      "stateMutability": "nonpayable",
      "type": "function"
    },
    {
      "constant": true,
      "inputs": [
        {
          "name": "electionId",
          "type": "uint256"
        }
      ],
      "name": "getNumOfCandidates",
      "outputs": [
        {
          "name": "",
          "type": "uint256"
        }
      ],
      "payable": false,
      "stateMutability": "view",
      "type": "function"
    },
    {
      "constant": true,
      "inputs": [
        {
          "name": "electionId",
          "type": "uint256"
        }
      ],
      "name": "getNumOfVoters",
      "outputs": [
        {
          "name": "",
          "type": "uint256"
        }
      ],
      "payable": false,
      "stateMutability": "view",
      "type": "function"
    },
    {
      "constant": true,
      "inputs": [
        {
          "name": "electionId",
          "type": "uint256"
        }
      ],
      "name": "getElection",
      "outputs": [
        {
          "name": "",
          "type": "uint256"
        },
        {
          "name": "",
          "type": "string"
        },
        {
          "name": "",
          "type": "uint256"
        },
        {
          "name": "",
          "type": "uint256"
        },
        {
          "name": "",
          "type": "uint256"
        },
        {
          "name": "",
          "type": "uint256"
        }
      ],
      "payable": false,
      "stateMutability": "view",
      "type": "function"
    },
    {
      "constant": true,
      "inputs": [
        {
          "name": "candidateId",
          "type": "uint256"
        }
      ],
      "name": "getCandidate",
      "outputs": [
        {
          "name": "",
          "type": "uint256"
        },
        {
          "name": "",
          "type": "bytes32"
        },
        {
          "name": "",
          "type": "bytes32"
        },
        {
          "name": "",
          "type": "uint256"
        },
        {
          "name": "",
          "type": "uint256"
        }
      ],
      "payable": false,
      "stateMutability": "view",
      "type": "function"
    },
    {
      "constant": true,
      "inputs": [
        {
          "name": "voteId",
          "type": "uint256"
        }
      ],
      "name": "getVote",
      "outputs": [
        {
          "name": "",
          "type": "uint256"
        },
        {
          "name": "",
          "type": "uint256"
        },
        {
          "name": "",
          "type": "uint256"
        }
      ],
      "payable": false,
      "stateMutability": "view",
      "type": "function"
    },
    {
      "constant": true,
      "inputs": [],
      "name": "getLastElectionId",
      "outputs": [
        {
          "name": "",
          "type": "uint256"
        }
      ],
      "payable": false,
      "stateMutability": "view",
      "type": "function"
    },
    {
      "constant": true,
      "inputs": [],
      "name": "getVoterId",
      "outputs": [
        {
          "name": "",
          "type": "uint256"
        }
      ],
      "payable": false,
      "stateMutability": "view",
      "type": "function"
    },
    {
      "constant": true,
      "inputs": [],
      "name": "getLastCandidateId",
      "outputs": [
        {
          "name": "",
          "type": "uint256"
        }
      ],
      "payable": false,
      "stateMutability": "view",
      "type": "function"
    },
    {
      "constant": true,
      "inputs": [],
      "name": "getLastElection",
      "outputs": [
        {
          "name": "",
          "type": "uint256"
        },
        {
          "name": "",
          "type": "string"
        },
        {
          "name": "",
          "type": "uint256"
        },
        {
          "name": "",
          "type": "uint256"
        },
        {
          "name": "",
          "type": "uint256"
        },
        {
          "name": "",
          "type": "uint256"
        }
      ],
      "payable": false,
      "stateMutability": "view",
      "type": "function"
    },
    {
      "constant": true,
      "inputs": [],
      "name": "getLastCandidate",
      "outputs": [
        {
          "name": "",
          "type": "uint256"
        },
        {
          "name": "",
          "type": "bytes32"
        },
        {
          "name": "",
          "type": "bytes32"
        },
        {
          "name": "",
          "type": "uint256"
        },
        {
          "name": "",
          "type": "uint256"
        }
      ],
      "payable": false,
      "stateMutability": "view",
      "type": "function"
    },
    {
      "constant": true,
      "inputs": [],
      "name": "getLastVoter",
      "outputs": [
        {
          "name": "",
          "type": "uint256"
        },
        {
          "name": "",
          "type": "uint256"
        },
        {
          "name": "",
          "type": "uint256"
        }
      ],
      "payable": false,
      "stateMutability": "view",
      "type": "function"
    }
  ],
  "bytecode": "0x608060405234801561001057600080fd5b50610e42806100206000396000f3006080604052600436106100d0576000357c0100000000000000000000000000000000000000000000000000000000900463ffffffff168063027098f7146100d55780631b1e77fe1461010057806335b8e820146101875780635a55c1f0146101f457806377813f4f146102435780638a6655d614610284578063980ff7af146102c55780639d71077714610306578063c7ec8367146103cf578063cf269b5f146103fa578063dcce764d146104ad578063dee303b6146104e6578063eb06650a14610511578063f100f79d14610568575b600080fd5b3480156100e157600080fd5b506100ea6105bb565b6040518082815260200191505060405180910390f35b34801561010c57600080fd5b5061018560048036038101908080359060200190929190803590602001908201803590602001908080601f016020809104026020016040519081016040528093929190818152602001838380828437820191505050505050919291929080359060200190929190803590602001909291905050506105c5565b005b34801561019357600080fd5b506101b26004803603810190808035906020019092919050505061068f565b60405180868152602001856000191660001916815260200184600019166000191681526020018381526020018281526020019550505050505060405180910390f35b34801561020057600080fd5b5061021f6004803603810190808035906020019092919050505061071d565b60405180848152602001838152602001828152602001935050505060405180910390f35b34801561024f57600080fd5b5061026e60048036038101908080359060200190929190505050610774565b6040518082815260200191505060405180910390f35b34801561029057600080fd5b506102c3600480360381019080803590602001909291908035906020019092919080359060200190929190505050610793565b005b3480156102d157600080fd5b506102f0600480360381019080803590602001909291905050506108ce565b6040518082815260200191505060405180910390f35b34801561031257600080fd5b50610331600480360381019080803590602001909291905050506108ed565b6040518087815260200180602001868152602001858152602001848152602001838152602001828103825287818151815260200191508051906020019080838360005b8381101561038f578082015181840152602081019050610374565b50505050905090810190601f1680156103bc5780820380516001836020036101000a031916815260200191505b5097505050505050505060405180910390f35b3480156103db57600080fd5b506103e4610a2b565b6040518082815260200191505060405180910390f35b34801561040657600080fd5b5061040f610a35565b6040518087815260200180602001868152602001858152602001848152602001838152602001828103825287818151815260200191508051906020019080838360005b8381101561046d578082015181840152602081019050610452565b50505050905090810190601f16801561049a5780820380516001836020036101000a031916815260200191505b5097505050505050505060405180910390f35b3480156104b957600080fd5b506104c2610b7e565b60405180848152602001838152602001828152602001935050505060405180910390f35b3480156104f257600080fd5b506104fb610bd9565b6040518082815260200191505060405180910390f35b34801561051d57600080fd5b50610526610be3565b60405180868152602001856000191660001916815260200184600019166000191681526020018381526020018281526020019550505050505060405180910390f35b34801561057457600080fd5b506105b9600480360381019080803590602001909291908035600019169060200190929190803560001916906020019092919080359060200190929190505050610c79565b005b6000600454905090565b60e060405190810160405280858152602001848152602001838152602001828152602001600115158152602001600081526020016000815250600080868152602001908152602001600020600082015181600001556020820151816001019080519060200190610636929190610d71565b50604082015181600201556060820151816003015560808201518160040160006101000a81548160ff02191690831515021790555060a0820151816005015560c082015181600601559050508360038190555050505050565b6000806000806000600160008781526020019081526020016000206000015460016000888152602001908152602001600020600101546001600089815260200190815260200160002060020154600160008a815260200190815260200160002060040154600160008b8152602001908152602001600020600501549450945094509450945091939590929450565b60008060006002600085815260200190815260200160002060000154600260008681526020019081526020016000206001015460026000878152602001908152602001600020600201549250925092509193909250565b6000806000838152602001908152602001600020600501549050919050565b6001151560008083815260200190815260200160002060040160009054906101000a900460ff1615151480156107f05750600115156001600084815260200190815260200160002060030160009054906101000a900460ff161515145b156108c957606060405190810160405280848152602001838152602001828152506002600085815260200190815260200160002060008201518160000155602082015181600101556040820151816002015590505060008082815260200190815260200160002060050160008154809291906001019190505560008083815260200190815260200160002060050181905550600160008381526020019081526020016000206005016000815480929190600101919050556001600084815260200190815260200160002060050181905550826004819055505b505050565b6000806000838152602001908152602001600020600601549050919050565b60006060600080600080600080888152602001908152602001600020600001546000808981526020019081526020016000206001016000808a8152602001908152602001600020600201546000808b8152602001908152602001600020600301546000808c8152602001908152602001600020600501546000808d815260200190815260200160002060060154848054600181600116156101000203166002900480601f016020809104026020016040519081016040528092919081815260200182805460018160011615610100020316600290048015610a0f5780601f106109e457610100808354040283529160200191610a0f565b820191906000526020600020905b8154815290600101906020018083116109f257829003601f168201915b5050505050945095509550955095509550955091939550919395565b6000600354905090565b600060606000806000806000806003548152602001908152602001600020600001546000806003548152602001908152602001600020600101600080600354815260200190815260200160002060020154600080600354815260200190815260200160002060030154600080600354815260200190815260200160002060050154600080600354815260200190815260200160002060060154848054600181600116156101000203166002900480601f016020809104026020016040519081016040528092919081815260200182805460018160011615610100020316600290048015610b635780601f10610b3857610100808354040283529160200191610b63565b820191906000526020600020905b815481529060010190602001808311610b4657829003601f168201915b50505050509450955095509550955095509550909192939495565b6000806000600260006004548152602001908152602001600020600001546002600060045481526020019081526020016000206001015460026000600454815260200190815260200160002060020154925092509250909192565b6000600554905090565b60008060008060006001600060055481526020019081526020016000206000015460016000600554815260200190815260200160002060010154600160006005548152602001908152602001600020600201546001600060055481526020019081526020016000206004015460016000600554815260200190815260200160002060050154945094509450945094509091929394565b60c060405190810160405280858152602001846000191681526020018360001916815260200160011515815260200182815260200160008152506001600086815260200190815260200160002060008201518160000155602082015181600101906000191690556040820151816002019060001916905560608201518160030160006101000a81548160ff0219169083151502179055506080820151816004015560a08201518160050155905050600080828152602001908152602001600020600601600081548092919060010191905055600080838152602001908152602001600020600601819055508360058190555050505050565b828054600181600116156101000203166002900490600052602060002090601f016020900481019282601f10610db257805160ff1916838001178555610de0565b82800160010185558215610de0579182015b82811115610ddf578251825591602001919060010190610dc4565b5b509050610ded9190610df1565b5090565b610e1391905b80821115610e0f576000816000905550600101610df7565b5090565b905600a165627a7a723058200924c8ea6afd15101725bc1265f9e2c7f69a790517edec7ab669a933df7711150029",
  "source": "pragma solidity ^0.4.24;\n\n/**\n * The contractName contract does this and that...\n */\ncontract Voting {\n\n\tstruct Election {\n\t\tuint uid;\n\t\tstring title;\n\t\tuint start_time;\n\t\tuint end_time;\n\t\tbool doesExist;\n\t\tuint totalVotesCount;\n\t\tuint candidatesNum;\n\t}\n\n\tstruct Voter {\n\t\tuint uid;\n\t\tuint candidateID;\n\t\tuint electionID;\n\t}\n\n\tstruct Candidate {\n\t\tuint uid;\n\t\tbytes32 name;\n\t\tbytes32 major;\n\t\tbool doesExist;\n\t\tuint electionID;\n\t\tuint theTotalVotes;\n\t}\n\n\tmapping(uint => Election) elections;\n\tmapping(uint => Candidate) candidates;\n\tmapping(uint => Voter) voters;\n\n\tuint lastElectionId;\n\tuint lastVoterId;\n\tuint lastCandidateId;\n\n\n\tfunction addElection(uint uid, string title, uint start_time, uint end_time) public {\n\t\telections[uid] = Election(uid,title,start_time,end_time,true,0,0);\n\t\tlastElectionId = uid;\n\t}\n\n\tfunction addCandidate(uint uid, bytes32 name, bytes32 major, uint electionId) public {\n\t\tcandidates[uid] = Candidate(uid, name,major,true,electionId,0);\n\t\telections[electionId].candidatesNum = elections[electionId].candidatesNum++;\n\t\tlastCandidateId = uid;\n\t}\n\n\tfunction vote(uint uid, uint candidateId , uint electionId) public {\n\t\tif(elections[electionId].doesExist == true && candidates[candidateId].doesExist ==true) {\n\t\t\tvoters[uid] = Voter(uid,candidateId, electionId);\n\t\t\telections[electionId].totalVotesCount = elections[electionId].totalVotesCount++;\n\t\t\tcandidates[candidateId].theTotalVotes = candidates[candidateId].theTotalVotes++;\n\t\t\tlastVoterId = uid;\n\t\t}\n\t}\n\n\tfunction getNumOfCandidates(uint electionId) public view returns(uint) {\n\t\treturn elections[electionId].candidatesNum;\n\t}\n\n\tfunction getNumOfVoters(uint electionId) public view returns(uint) {\n\t\treturn elections[electionId].totalVotesCount;\n\t}\n\n\tfunction getElection(uint electionId) public view returns(uint, string, uint, uint, uint, uint) {\n\t\treturn (elections[electionId].uid, elections[electionId].title, elections[electionId].start_time, elections[electionId].end_time, elections[electionId].totalVotesCount, elections[electionId].candidatesNum);\n\t}\n\n\tfunction getCandidate(uint candidateId) public view returns(uint, bytes32, bytes32, uint, uint) {\n\t\treturn (candidates[candidateId].uid, candidates[candidateId].name, candidates[candidateId].major, candidates[candidateId].electionID,candidates[candidateId].theTotalVotes);\n\t}\n\n\tfunction getVote(uint voteId) public view returns(uint, uint, uint) {\n\t\treturn (voters[voteId].uid, voters[voteId].candidateID, voters[voteId].electionID);\n\t}\n\n\tfunction getLastElectionId() public view returns(uint) {\n\t\treturn lastElectionId;\n\t}\n\n\tfunction getVoterId() public view returns(uint) {\n\t\treturn lastVoterId;\n\t}\n\n\tfunction getLastCandidateId() public view returns(uint) {\n\t\treturn lastCandidateId;\n\t}\n\n\tfunction getLastElection() public view returns(uint, string, uint, uint, uint, uint) {\n\t\treturn (elections[lastElectionId].uid, elections[lastElectionId].title, elections[lastElectionId].start_time, elections[lastElectionId].end_time, elections[lastElectionId].totalVotesCount, elections[lastElectionId].candidatesNum);\n\t}\n\n\tfunction getLastCandidate() public view returns(uint, bytes32, bytes32, uint, uint) {\n\t\treturn (candidates[lastCandidateId].uid, candidates[lastCandidateId].name, candidates[lastCandidateId].major, candidates[lastCandidateId].electionID,candidates[lastCandidateId].theTotalVotes);\n\t}\n\n\tfunction getLastVoter() public view returns(uint, uint, uint) {\n\t\treturn (voters[lastVoterId].uid, voters[lastVoterId].candidateID, voters[lastVoterId].electionID);\n\t}\n}\n",
  "sourcePath": "/Users/jeonjihun/Desktop/project/voting/contracts/Voting.sol",
  "compiler": {
    "name": "solc",
    "version": "0.4.24+commit.e67f0147.Emscripten.clang"
  },
  "schemaVersion": "2.0.0",
  "updatedAt": "2018-12-05T20:41:02.341Z"
}